:060000000A128A11FC2F18
:10076600831603138801831203138801831203136C
:1007760088010830F2009D30F1000530F000F00BE2
:10078600C22BF10BC22BF20BC22BC92B01308312E9
:10079600031388000830F2009D30F1000530F000A8
:1007A600F00BD32BF10BD32BF20BD32BDA2B02301E
:1007B6008312031388000830F2009D30F1000530E3
:1007C600F000F00BE42BF10BE42BF20BE42BEB2BFC
:1007D60003308312031388000830F2009D30F100C5
:1007E6000530F000F00BF52BF10BF52BF20BF52B8A
:1007F600FC2B04308312031388000830F2009D306E
:10080600F1000530F000F00B062CF10B062CF20B74
:10081600062C0D2C05308312031388000830F200D5
:100826009D30F1000530F000F00B172CF10B172C62
:10083600F20B172C1E2C0630831203138800083087
:10084600F2009D30F1000530F000F00B282CF10B82
:10085600282CF20B282C2F2C073083120313880028
:100866000830F2009D30F1000530F000F00B392C15
:10087600F10B392CF20B392C402C08308312031360
:1008860088000830F2009D30F1000530F000F00BD2
:100896004A2CF10B4A2CF20B4A2C512C09308312AC
:1008A600031388000830F2009D30F1000530F00097
:1008B600F00B5B2CF10B5B2CF20B5B2C622C0A30E1
:1008C6008312031388000830F2009D30F1000530D2
:1008D600F000F00B6C2CF10B6C2CF20B6C2C732CC7
:1008E6000B308312031388000830F2009D30F100AC
:1008F6000530F000F00B7D2CF10B7D2CF20B7D2CDE
:10090600842C0C308312031388000830F2009D30CB
:10091600F1000530F000F00B8E2CF10B8E2CF20B53
:100926008E2C952C0D308312031388000830F200AC
:100936009D30F1000530F000F00B9F2CF10B9F2C41
:10094600F20B9F2CA62C0E3083120313880008305E
:10095600F2009D30F1000530F000F00BB02CF10BE9
:10096600B02CF20BB02CB72C0F3083120313880077
:100976000830F2009D30F1000530F000F00BC12C7C
:10098600F10BC12CF20BC12CC82C103083120313AF
:1009960088000830F2009D30F1000530F000F00BC1
:1009A600D22CF10BD22CF20BD22CD92C1130831273
:1009B600031388000830F2009D30F1000530F00086
:1009C600F00BE32CF10BE32CF20BE32CEA2C1230A8
:1009D6008312031388000830F2009D30F1000530C1
:1009E600F000F00BF42CF10BF42CF20BF42CFB2C96
:1009F60013308312031388000830F2009D30F10093
:100A06000530F000F00B052DF10B052DF20B052D31
:100A16000C2D14308312031388000830F2009D3029
:100A2600F1000530F000F00B162DF10B162DF20B30
:100A3600162D1D2D15308312031388000830F20081
:100A46009D30F1000530F000F00B272DF10B272D1E
:100A5600F20B272D2E2D1630831203138800083033
:100A6600F2009D30F1000530F000F00B382DF10B4F
:100A7600382DF20B382D3F2D1730831203138800C3
:100A86000830F2009D30F1000530F000F00B492DE2
:100A9600F10B492DF20B492D502D183083120313FB
:100AA60088000830F2009D30F1000530F000F00BB0
:100AB6005A2DF10B5A2DF20B5A2D612D1930831236
:100AC600031388000830F2009D30F1000530F00075
:100AD600F00B6B2DF10B6B2DF20B6B2D722D1A306B
:100AE6008312031388000830F2009D30F1000530B0
:100AF600F000F00B7C2DF10B7C2DF20B7C2D832D61
:100B06001B308312031388000830F2009D30F10079
:100B16000530F000F00B8D2DF10B8D2DF20B8D2D88
:100B2600942D1C308312031388000830F2009D3088
:100B3600F1000530F000F00B9E2DF10B9E2DF20B0F
:100B46009E2DA52D1D308312031388000830F20058
:100B56009D30F1000530F000F00BAF2DF10BAF2DFD
:100B6600F20BAF2DB62D1E3083120313880008300A
:100B7600F2009D30F1000530F000F00BC02DF10BB6
:100B8600C02DF20BC02DC72D1F3083120313880012
:100B96000830F2009D30F1000530F000F00BD12D49
:100BA600F10BD12DF20BD12DD82D2030831203134A
:100BB60088000830F2009D30F1000530F000F00B9F
:100BC600E22DF10BE22DF20BE22DE92D21308312FD
:100BD600031388000830F2009D30F1000530F00064
:100BE600F00BF32DF10BF32DF20BF32DFA2D223032
:100BF6008312031388000830F2009D30F10005309F
:100C0600F000F00B042EF10B042EF20B042E0B2E2B
:100C160023308312031388000830F2009D30F10060
:100C26000530F000F00B152EF10B152EF20B152EDC
:100C36001C2E24308312031388000830F2009D30E6
:100C4600F1000530F000F00B262EF10B262EF20BEC
:100C5600262E2D2E25308312031388000830F2002D
:100C66009D30F1000530F000F00B372EF10B372EDA
:100C7600F20B372E3E2E26308312031388000830DF
:100C8600F2009D30F1000530F000F00B482EF10B1C
:100C9600482EF20B482E4F2E27308312031388005E
:100CA6000830F2009D30F1000530F000F00B592EAF
:100CB600F10B592EF20B592E602E28308312031396
:100CC60088000830F2009D30F1000530F000F00B8E
:100CD6006A2EF10B6A2EF20B6A2E712E29308312C0
:100CE600031388000830F2009D30F1000530F00053
:100CF600F00B7B2EF10B7B2EF20B7B2E822E2A30F5
:100D06008312031388000830F2009D30F10005308D
:100D1600F000F00B8C2EF10B8C2EF20B8C2E932EFA
:100D26002B308312031388000830F2009D30F10047
:100D36000530F000F00B9D2EF10B9D2EF20B9D2E33
:100D4600A42E2C308312031388000830F2009D3045
:100D5600F1000530F000F00BAE2EF10BAE2EF20BCB
:100D6600AE2EB52E2D308312031388000830F20004
:100D76009D30F1000530F000F00BBF2EF10BBF2EB9
:100D8600F20BBF2EC62E2E308312031388000830B6
:100D9600F2009D30F1000530F000F00BD02EF10B83
:100DA600D02EF20BD02ED72E2F30831203138800AD
:100DB6000830F2009D30F1000530F000F00BE12E16
:100DC600F10BE12EF20BE12EE82E303083120313E5
:100DD60088000830F2009D30F1000530F000F00B7D
:100DE600F22EF10BF22EF20BF22EF92E3130831287
:100DF600031388000830F2009D30F1000530F00042
:100E0600F00B032FF10B032FF20B032F0A2F3230B7
:100E16008312031388000830F2009D30F10005307C
:100E2600F000F00B142FF10B142FF20B142F1B2FC5
:100E360033308312031388000830F2009D30F1002E
:100E46000530F000F00B252FF10B252FF20B252F87
:100E56002C2F34308312031388000830F2009D30A3
:100E6600F1000530F000F00B362FF10B362FF20BA8
:100E7600362F3D2F35308312031388000830F200D9
:100E86009D30F1000530F000F00B472FF10B472F96
:100E9600F20B472F4E2F363083120313880008308B
:100EA600F2009D30F1000530F000F00B582FF10BE9
:100EB600582FF20B582F5F2F3730831203138800F9
:100EC6000830F2009D30F1000530F000F00B692F7C
:100ED600F10B692FF20B692F702F38308312031331
:100EE60088000830F2009D30F1000530F000F00B6C
:100EF6007A2FF10B7A2FF20B7A2F812F393083124A
:100F0600031388000830F2009D30F1000530F00030
:100F1600F00B8B2FF10B8B2FF20B8B2F922F3A307E
:100F26008312031388000830F2009D30F10005306B
:100F3600F000F00B9C2FF10B9C2FF20B9C2FA32F94
:100F46003B308312031388000830F2009D30F10015
:100F56000530F000F00BAD2FF10BAD2FF20BAD2FDE
:100F6600B42F3C308312031388000830F2009D3002
:100F7600F1000530F000F00BBE2FF10BBE2FF20B87
:100F8600BE2FC52F3D308312031388000830F200B0
:100F96009D30F1000530F000F00BCF2FF10BCF2F75
:100FA600F20BCF2FD62F3E30831203138800083062
:100FB600F2009D30F1000530F000F00BE02FF10B50
:100FC600E02FF20BE02FE72F3F3083120313880048
:100FD6000830F2009D30F1000530F000F00BF12FE3
:100FE600F10BF12FF20BF12FF82FB92B0A128A1100
:0A0FF600002883010A128A11B32BB0
:04400E00F12FFF3F50
:00000001FF
