:060000000A128A11FC2F18
:100F3A008316031388018312031388010130F70013
:100F4A00F301F40177088312031388000230F200D8
:100F5A008630F1009930F000F00BB12FF10BB12F70
:100F6A00F20BB12F7708F0007007F7000130F30792
:100F7A000318F40A0030F4077408803AFF0080303E
:100F8A007F02031DCA2F07307302031CCD2FCE2FF9
:100F9A00A72FF501F60177088312031388000230A0
:100FAA00F2008630F1009930F000F00BDA2FF10BE5
:100FBA00DA2FF20BDA2F7708F0000310700CF70023
:100FCA000130F5070318F60A0030F6077608803A6A
:100FDA00FF0080307F02031DF42F07307502031CC7
:100FEA00F72FF82FD02FA52F0A128A110028830174
:060FFA000A128A119D2F6E
:04400E00F12FFF3F50
:00000001FF
